:03000000020800F3
:0C080000787FE4F6D8FD758119020847E6
:0309D70001190003
:03001B000209F2E5
:0309F200051932B2
:10092F00D2ABD2AFE4F512F513758911758BCB7578
:10093F008D7DD28EE4F519E519C394285009AF13B4
:10094F00AE121208E180F00513E51370020512C311
:0A095F00940FE512942740D180CADE
:10098F007C007D1912088CE4FEEEC39F501575890B
:10099F0011758ACB758C7DD28C308DFDC28DC28C3A
:0309AF000E80E6D1
:0109B2002222
:1009B3007C007D6412088CE4FEEEC39F501575899C
:1009C30012758A7B758C7BD28C308DFDC28DC28C67
:0309D3000E80E6AD
:0109D60022FE
:0C09DA000A08C0F9A4B0999282F880903D
:0B09E70075A00F74082FF8E6F58022C1
:10096900BD010575A0088016BD020575A004800E9D
:10097900BD030575A0028006BD040A75A0017408AF
:060989002FF8E6F58022C4
:0408E1008E148F15CD
:1008E500E4F516751801AE14AF157C007D0A1208E3
:1008F5008C8D17AE14AF157C007D0A12088C8E14F2
:100905008F158518A074082517F8E6F580E4F5B06D
:100915007FB87E0B1209B375B001E51825E0F5180F
:090925000516E516C3940440BD5B
:01092E0022A6
:10080C0002092FE493A3F8E493A34003F68001F2CA
:10081C0008DFF48029E493A3F85407240CC8C333ED
:10082C00C4540F4420C8834004F456800146F6DFBC
:10083C00E4800B01020408102040809009D7E47E6C
:10084C00019360BCA3FF543F30E509541FFEE493B1
:10085C00A360010ECF54C025E060A840B8E493A378
:10086C00FAE493A3F8E493A3C8C582C8CAC583CAA3
:10087C00F0A3C8C582C8CAC583CADFE9DEE780BE5B
:0109E6000010
:10088C00BC000BBE0029EF8DF084FFADF022E4CC50
:10089C00F875F008EF2FFFEE33FEEC33FCEE9DEC19
:1008AC00984005FCEE9DFE0FD5F0E9E4CEFD22ED5F
:1008BC00F8F5F0EE8420D21CFEADF075F008EF2FA9
:1008CC00FFED33FD4007985006D5F0F222C398FD9A
:0508DC000FD5F0EA2237
:00000001FF
